:020000040800F2
:1000000000280020C5110008551100085B110008E8
:1000100061110008671100086D1100080000000060
:100020000000000000000000000000007311000844
:100030007F110008000000008B11000897110008D4
:100040000D1200080D1200080D1200080D12000814
:100050000D1200080D1200080D1200080D12000804
:100060000D1200080D1200080D1200080D120008F4
:100070000D1200080D1200080D1200080D120008E4
:100080000D1200080D1200080D1200080D120008D4
:100090000D1200080D1200080D1200080D120008C4
:1000A0000D1200080D1200080D1200080D120008B4
:1000B000A51100080D120008000000000D12000834
:1000C0000D12000800000000000000000D120008E2
:1000D000000000000D1200080D12000800000000D2
:1000E0000D1200080D1200080D120008000000009B
:1000F0000000000000000000000000000000000000
:0C01000000000000000000005FF808F1A3
:10010C0010B5054C237833B9044B13B10448AFF345
:10011C0000800123237010BD8C0000200000000023
:10012C005428000808B5034B1BB103490348AFF32F
:10013C00008008BD0000000090000020542800083A
:10014C0080B586B000AF7860144A07F1080307CA7F
:10015C0003C31A8000237B6118E001227B6902FA39
:10016C0003F399B207F108027B6813441B781A4613
:10017C007B6942FA03F3DBB203F00103DBB21A46EC
:10018C00074801F040FB7B6901337B617B69062BDF
:10019C00E3DD00BF00BF1837BD4680BD6C280008EA
:1001AC00000C014080B500AF01227821024801F01B
:1001BC002AFB00BF80BD00BF0008014080B582B0A3
:1001CC0000AF7860FFF7EEFFA24B1B68002B0CD141
:1001DC00A14B00221A60A04B00225A609E4B0022B9
:1001EC009A609D4B0022DA60F3E09C4B1B68012B5C
:1001FC0075D19B4B1B689B4A82FB03129210DB1739
:10020C00D31A954A1360964B1968964B83FB0123BE
:10021C009A10CB17D21A13469B0013445B00CA1AD0
:10022C008D4B5A608E4B1B68013B8D4A13608C4B77
:10023C001B68002B1DDA8C4B1B688A4A82FB03124D
:10024C009210DB17D31A844A1360874B1968854BBD
:10025C0083FB01239A10CB17D21A13469B0013442D
:10026C005B00CA1A7C4B5A607F4B1B68013B7E4A71
:10027C0013607D4B1B68002B1DDA7C4B1B68794A85
:10028C0082FB03129210DB17D31A734A1360774B5D
:10029C001968744B83FB01239A10CB17D21A13469F
:1002AC009B0013445B00CA1A6B4B5A606F4B1B6864
:1002BC00013B6E4A13606D4B1B68002B0BD16C4BD2
:1002CC001B68674A13606B4B1B68674A13606A4B69
:1002DC001B68664A13604FF47A7000F055FE674B4A
:1002EC001B68012B75D1664B1B685E4A82FB03129F
:1002FC009210DB17D31A584A9360614B1968594B0B
:10030C0083FB01239A10CB17D21A13469B0013447C
:10031C005B00CA1A504BDA60594B1B68013B584AB8
:10032C001360574B1B68002B1DDA564B1B684D4A4C
:10033C0082FB03129210DB17D31A474A9360514B7E
:10034C001968484B83FB01239A10CB17D21A13461A
:10035C009B0013445B00CA1A3F4BDA60494B1B6885
:10036C00013B484A1360474B1B68002B1DDA464B78
:10037C001B683C4A82FB03129210DB17D31A364AD5
:10038C009360414B1968374B83FB01239A10CB17B1
:10039C00D21A13469B0013445B00CA1A2E4BDA6028
:1003AC00394B1B68013B384A1360374B1B68002BD9
:1003BC000BD12F4B1B68344A13602E4B1B68304AF1
:1003CC0013602D4B1B682F4A13604FF47A7000F0AA
:1003DC00F5FD7B68032B37D801A252F823F000BF40
:1003EC00FD03000813040008290400083F0400085A
:1003FC00194B1B681846FFF7A3FE0022082123485F
:10040C0001F001FA21E0144B5B681846FFF798FEE7
:10041C00002210211D4801F0F6F916E00E4B9B68E6
:10042C001846FFF78DFE00222021184801F0EBF949
:10043C000BE0094BDB681846FFF782FE00224021D7
:10044C00124801F0E0F900E000BF00BF0837BD46DC
:10045C0080BD00BF1000002000000020E000002044
:10046C0030000020676666663800002034000020EB
:10047C00240000202C00002028000020E400002094
:10048C0044000020400000203C00002000080140F7
:10049C0080B582B000AF78603960FFF783FE7B686F
:1004AC00364A82FB03129210DB17D31A344A1360BC
:1004BC007968324B83FB01239A10CB17D21A13465F
:1004CC009B0013445B00CA1A2D4B5A603B682B4AA5
:1004DC0082FB03129210DB17D31A294A93603968F6
:1004EC00264B83FB01239A10CB17D21A13469B0081
:1004FC0013445B00CA1A224BDA60224B1B68032B95
:10050C0036D801A252F823F0250500083B05000857
:10051C005105000867050008194B1B681846FFF7C2
:10052C000FFE00220821184801F06DF921E0144B50
:10053C005B681846FFF704FE00221021124801F0F8
:10054C0062F916E00E4B9B681846FFF7F9FD002286
:10055C0020210D4801F057F90BE0094BDB681846D8
:10056C00FFF7EEFD00224021074801F04CF900E0B6
:10057C0000BF00BF0837BD4680BD00BF676666661A
:10058C00A8000020B80000200008014080B500AF92
:10059C00644B1B68012B13D1634B1B681846FFF788
:1005AC000DFE614B1B6801335F4A13605E4B1B6889
:1005BC00032B02DD5C4B00221A60FA2000F0CAFC0F
:1005CC005A4B1B68012B40F09D804FF47A7000F061
:1005DC00A7FC00F017FA564B1B68042B00F28E8018
:1005EC0001A252F823F000BF090600081706000804
:1005FC004706000889060008B906000801224FF4D6
:10060C00FC514C4801F0FFF878E001224FF4845182
:10061C00484801F0F8F8484B1B68013B464A136008
:10062C00464B1B68013B454A1360444B1B68002B2F
:10063C005DDC3F4B02221A6059E001224FF49061BD
:10064C003C4801F0E0F83C4B1B68013B3A4A136014
:10065C003B4B1B68013B3A4A1360394B1B68002B20
:10066C0047DC334B03221A60334B05221A60344BA0
:10067C0002221A60314B03221A603AE001224FF435
:10068C0010612C4801F0BFF82B4B1B68013B2A4A28
:10069C0013602A4B1B68013B284A1360274B1B68CD
:1006AC00002B28DC224B04221A6024E001224FF498
:1006BC004071204801F0A7F81F4B1B68013B1E4AF4
:1006CC0013601F4B1B68013B1D4A13601C4B1B68BE
:1006DC00002B12DC164B01221A60174B05221A60F4
:1006EC00174B02221A60154B03221A6005E000BF5B
:1006FC0004E000BF02E000BF00E000BF0C4B1B6831
:10070C00104A136000F08AF90346012B07D10E4BF7
:10071C000C221A60044B00221A6000F073F900BF1F
:10072C0080BD00BFDC000020B8000020D8000020F5
:10073C0010000020000801401800002020000020BC
:10074C001C000020E80000201400002080B500AF41
:10075C002A4B1B68012B07D1FA2000F0E1FB4FF468
:10076C00C071274801F067F8264B1B68012B14D188
:10077C00254B1B6802211846FFF78AFE234B1B688A
:10078C000133224A1360214B1B68032B02DD1F4BE4
:10079C0000221A60FA2000F0DDFB00F03FF903465E
:1007AC00012B07D11A4B0D221A6000F02BF9174BB5
:1007BC0000221A6000F044F90346012B0BD1124BB6
:1007CC001B680133104A13600F4B1B68632B02DD4F
:1007DC000D4B01221A6000F045F90346012B0BD199
:1007EC00094B1B680B4A1360074B1B680A4A1360C2
:1007FC00054B1B68094A136000BF80BDD800002060
:10080C0000080140DC00002024000020B80000207B
:10081C001400002018000020300000203C000020B4
:10082C0080B500AF2A4B1B68012B07D1FA2000F0D2
:10083C0077FB4FF4C061274800F0FDFF264B1B6887
:10084C00012B14D1254B1B6803211846FFF720FE02
:10085C00234B1B680133224A1360214B1B68032B6B
:10086C0002DD1F4B00221A60FA2000F073FB00F02F
:10087C00D5F80346012B07D11A4B0E221A6000F053
:10088C00C1F8174B00221A6000F0DAF80346012B6E
:10089C000BD1124B1B680133104A13600F4B1B68B2
:1008AC00632B02DD0D4B01221A6000F0DBF80346CE
:1008BC00012B0BD1094B1B680B4A1360074B1B68B0
:1008CC000A4A1360054B1B68094A136000BF80BDC0
:1008DC00D800002000080140DC0000202800002087
:1008EC00B8000020140000201C0000203400002060
:1008FC004000002080B500AF364B1B68012B07D1A0
:10090C00FA2000F00DFB4FF4C051334800F093FF78
:10091C00324B1B68012B14D1314B1B680421184638
:10092C00FFF7B6FD2F4B1B6801332E4A13602D4B7E
:10093C001B68032B02DD2B4B00221A60FA2000F0FF
:10094C0009FB00F07DF80346012B0BD1244B1B68EF
:10095C000133234A1360224B1B68632B02DD204BAF
:10096C0001221A6000F07EF80346012B0BD11C4BC0
:10097C001B681D4A13601A4B1B681C4A1360184BEA
:10098C001B681B4A136000F049F80346012B1FD16A
:10099C00184B0B221A6000F035F8124B00221A602B
:1009AC00154B1A68104B1B681A44144B1B689A425F
:1009BC0002D0134B00221A600F4B1A680A4B1B68AB
:1009CC001A440E4B1B689A4202D10D4B01221A603D
:1009DC0000BF80BDD800002000080140DC000020D2
:1009EC002C000020B800002020000020380000203F
:1009FC0044000020140000201C00002018000020DF
:100A0C001000002080B500AF00224FF4FC510248CA
:100A1C0000F0F9FE00BF80BD0008014080B400AFBB
:100A2C00064B1B68012B04D1044B00221A600123D6
:100A3C0000E000231846BD4680BC7047BC00002077
:100A4C0080B400AF064B1B68012B04D1044B002271
:100A5C001A60012300E000231846BD4680BC704795
:100A6C00C000002080B400AF064B1B68012B04D1E2
:100A7C00044B00221A60012300E000231846BD46F7
:100A8C0080BC7047C400002080B400AF034B01222F
:100A9C001A6000BFBD4680BC704700BFBC00002080
:100AAC0080B400AF034B01221A6000BFBD4680BC6E
:100ABC00704700BFC000002080B400AF034B012280
:100ACC001A6000BFBD4680BC704700BFC400002048
:100ADC0080B500AF5E4B1B685E4A13605E4B1B68B3
:100AEC005B4A13605D4B1B685D4A13605D4B1B6872
:100AFC005A4A13605C4B1B685C4A13605C4B1B6866
:100B0C00594A13604FF400515A4800F065FE0346F1
:100B1C001A46514B1A604FF48041564800F05CFE67
:100B2C0003461A464F4B1A604FF40041514800F0EF
:100B3C0053FE03461A464E4B1A60454B1A68464BF9
:100B4C001B689A4230D1424B1A68424B1B689A423E
:100B5C002AD1404B1A68484B1B689A420DD03D4B2A
:100B6C001B68454A1360444B1B68002B1CD1434B3C
:100B7C0064221A60FFF788FF16E0404B1B68013BAC
:100B8C003E4A13603D4B1B68002B0DD13B4B64223E
:100B9C001A60394B1B68002B06D1394B0B221A609B
:100BAC00384B1B68384A13602C4B1A682D4B1B684A
:100BBC009A4218D1294B1A68294B1B689A4212D1B8
:100BCC00274B1A68314B1B689A420CD0244B1B687C
:100BDC002E4A13602D4B1B68002B04D1274B64222B
:100BEC001A60FFF75DFF204B1A68214B1B689A4275
:100BFC002BD11D4B1A681D4B1B689A4225D11B4BE0
:100C0C001A68234B1B689A420DD0184B1B68204A5C
:100C1C0013601F4B1B68002B17D1184B64221A60F2
:100C2C00FFF74AFF11E0154B1B68013B134A136099
:100C3C00124B1B68002B08D1104B64221A60144B0A
:100C4C001B68002B01D1FFF737FF00BF80BD00BF31
:100C5C004C00002050000020480000205C000020C8
:100C6C0060000020580000206C0000207000002064
:100C7C006800002000100140540000207800002083
:100C8C0014000020E8000020100000206400002068
:100C9C007400002080B500AF00F0B4FA00F036F814
:100CAC0000F0BCF800F06EF8164801F009FA0A20C2
:100CBC0000F036F90A2000F04DF90A2000F064F932
:100CCC000A2000F07BF9104B1B680B3B032BFAD866
:100CDC0001A252F823F000BFF50C0008FB0C000831
:100CEC00010D0008070D0008FFF750FC08E0FFF7A6
:100CFC002DFD05E0FFF794FD02E0FFF7FBFD00BFC3
:100D0C00E1E700BFEC0000201400002080B590B09B
:100D1C0000AF07F1180328220021184601F08CFDC2
:100D2C003B1D00221A605A609A60DA601A61022335
:100D3C00BB610123BB621023FB6200237B6307F1C1
:100D4C001803184600F090FD0346002B01D000F06C
:100D5C00E1F80F237B600023BB600023FB600023C2
:100D6C003B6100237B613B1D0021184600F0FCFF1A
:100D7C000346002B01D000F0CDF800BF4037BD4634
:100D8C0080BD000080B586B000AF07F108030022DB
:100D9C001A605A609A60DA603B4600221A605A6008
:100DAC001D4B4FF080421A601B4B41F63F725A604C
:100DBC00194B00229A60184B0922DA60164B00225C
:100DCC001A61154B00229A61134801F029F9034668
:100DDC00002B01D000F09EF84FF48053BB6007F15C
:100DEC00080319460C4801F0BFFA0346002B01D04A
:100DFC0000F090F800233B6000237B603B461946D3
:100E0C00054801F08BFC0346002B01D000F082F862
:100E1C0000BF1837BD4680BDEC00002080B588B0FF
:100E2C0000AF07F1100300221A605A609A60DA6072
:100E3C002E4B9B692D4A43F0100393612B4B9B69FE
:100E4C0003F01003FB60FB68284B9B69274A43F0B7
:100E5C0004039361254B9B6903F00403BB60BB68DF
:100E6C00224B9B69214A43F0080393611F4B9B69FA
:100E7C0003F008037B607B68002249F6F8711C487C
:100E8C0000F0C1FC00227F211A4800F0BCFC4FF49A
:100E9C0060433B6100237B610123BB6107F11003BD
:100EAC001946154800F01EFB49F6F8733B61012307
:100EBC007B610023BB610223FB6107F11003194620
:100ECC000B4800F00FFB7F233B6101237B61002368
:100EDC00BB610223FB6107F110031946054800F0C2
:100EEC0001FB00BF2037BD4680BD00BF0010024093
:100EFC0000080140000C01400010014080B582B098
:100F0C0000AF786000F074F8FFF7E2FD00BF08371F
:100F1C00BD4680BD80B400AF72B600BFFEE70000D6
:100F2C0080B483B000AF7860074B1B687A6892FB83
:100F3C00F3F3064A1360064B00221A6000BF0C370D
:100F4C00BD4680BC704700BF7C000020C80000205C
:100F5C00D800002080B483B000AF7860074B1B68CA
:100F6C007A6892FBF3F3064A1360064B00221A6070
:100F7C0000BF0C37BD4680BC704700BF7C00002012
:100F8C00CC000020DC00002080B483B000AF78607F
:100F9C00074B1B687A6892FBF3F3064A1360064B07
:100FAC0000221A6000BF0C37BD4680BC704700BFE2
:100FBC007C000020D0000020E000002080B483B032
:100FCC0000AF7860074B1B687A6892FBF3F3064A14
:100FDC001360064B00221A6000BF0C37BD4680BC64
:100FEC00704700BF7C000020D4000020E4000020EB
:100FFC0080B400AF214B1B68002B0BDD1F4B1B6813
:10100C00013B1E4A13601D4B1B68002B02DC1C4B62
:10101C0001221A601B4B1B68002B0BDD194B1B6844
:10102C00013B184A1360174B1B68002B02DC164B54
:10103C0001221A60154B1B68002B0BDD134B1B6830
:10104C00013B124A1360114B1B68002B02DC104B46
:10105C0001221A600F4B1B68002B0BDD0D4B1B681C
:10106C00013B0C4A13600B4B1B68002B02DC0A4B38
:10107C0001221A6000BFBD4680BC7047C80000202A
:10108C00D8000020CC000020DC000020D000002084
:10109C00E0000020D4000020E400002080B485B0E3
:1010AC0000AF154B9B69144A43F001039361124B3B
:1010BC009B6903F00103BB60BB680F4BDB690E4AF5
:1010CC0043F08053D3610C4BDB6903F080537B609E
:1010DC007B680A4B5B68FB60FB6823F0E063FB609A
:1010EC00FB6843F00073FB60044AFB68536000BF6D
:1010FC001437BD4680BC7047001002400000014010
:10110C0080B584B000AF78607B681B68B3F1804F0A
:10111C0013D10C4BDB690B4A43F00103D361094B30
:10112C00DB6903F00103FB60FB68002200211C203B
:10113C0000F0A1F91C2000F0BAF900BF1037BD4631
:10114C0080BD00BF0010024080B400AFFEE780B449
:10115C0000AFFEE780B400AFFEE780B400AFFEE75F
:10116C0080B400AFFEE780B400AF00BFBD4680BCCA
:10117C00704780B400AF00BFBD4680BC704780B4E0
:10118C0000AF00BFBD4680BC704780B500AF00F01B
:10119C007FF800BF80BD000080B500AF024800F0B2
:1011AC00DBFF00BF80BD00BFEC00002080B400AFAF
:1011BC0000BFBD4680BC7047FFF7F8FF0B480C49D9
:1011CC000C4A002302E0D458C4500433C4188C4297
:1011DC00F9D3094A094C002301E013600432A242FE
:1011EC00FBD301F005FBFFF755FD70470000002015
:1011FC008C000020A42800088C000020380100205E
:10120C00FEE7000080B500AF084B1B68074A43F0AF
:10121C0010031360032000F023F90F2000F008F8EE
:10122C00FFF73CFF0023184680BD00BF00200240A2
:10123C0080B582B000AF7860124B1A68124B1B78E5
:10124C0019464FF47A73B3FBF1F3B2FBF3F3184680
:10125C0000F03BF90346002B01D001230EE07B6824
:10126C000F2B0AD8002279684FF0FF3000F003F9F9
:10127C00064A7B681360002300E0012318460837F8
:10128C00BD4680BD80000020880000208400002026
:10129C0080B400AF054B1B781A46054B1B681344F2
:1012AC00034A136000BFBD4680BC70478800002015
:1012BC003401002080B400AF024B1B681846BD46B9
:1012CC0080BC70473401002080B485B000AF7860DA
:1012DC007B6803F00703FB600C4BDB68BB60BA68F0
:1012EC004FF6FF031340BB60FB681A02BB68134345
:1012FC0043F0BF6343F40033BB60044ABB68D36064
:10130C0000BF1437BD4680BC704700BF00ED00E045
:10131C0080B400AF044BDB681B0A03F007031846CC
:10132C00BD4680BC704700BF00ED00E080B483B0C8
:10133C0000AF0346FB7197F90730002B0BDBFB79F1
:10134C0003F01F02064997F907305B09012000FAE8
:10135C0002F241F8232000BF0C37BD4680BC704719
:10136C0000E100E080B483B000AF03463960FB714C
:10137C0097F90730002B0ADB3B68DAB20C4997F976
:10138C0007301201D2B20B4483F800230AE03B6809
:10139C00DAB20849FB7903F00F03043B1201D2B215
:1013AC000B441A7600BF0C37BD4680BC704700BF9B
:1013BC0000E100E000ED00E080B489B000AFF8601F
:1013CC00B9607A60FB6803F00703FB61FB69C3F14A
:1013DC000703042B28BF0423BB61FB690433062BD2
:1013EC0002D9FB69033B00E000237B614FF0FF3225
:1013FC00BB6902FA03F3DA43BB681A407B699A4073
:10140C004FF0FF317B6901FA03F3D9437B680B4042
:10141C00134318462437BD4680BC704780B582B054
:10142C0000AF78607B68013BB3F1807F01D301236F
:10143C000FE00A4A7B68013B53600F214FF0FF30ED
:10144C00FFF790FF054B00229A60044B07221A60AD
:10145C00002318460837BD4680BD00BF10E000E0F1
:10146C0080B582B000AF78607868FFF72DFF00BFC1
:10147C000837BD4680BD80B586B000AF0346B96065
:10148C007A60FB7300237B61FFF742FF78617A6817
:10149C00B9687869FFF790FF024697F90F3011464B
:1014AC001846FFF75FFF00BF1837BD4680BD80B5FB
:1014BC0082B000AF0346FB7197F907301846FFF76F
:1014CC0035FF00BF0837BD4680BD80B582B000AF88
:1014DC0078607868FFF7A2FF034618460837BD46C8
:1014EC0080BD000080B48BB000AF78603960002301
:1014FC007B6200233B6248E101227B6A02FA03F320
:10150C00FB613B681B68FA691340BB61BA69FB69F4
:10151C009A4240F037813B685B68A34A93425ED0A5
:10152C00A14A934275D8A14A934258D09F4A9342FC
:10153C006FD89F4A934252D09D4A934269D89D4A94
:10154C0093424CD09B4A934263D89B4A934246D0D9
:10155C00994A93425DD8122B2AD8122B59D801A242
:10156C0052F823F0EB150008C5150008D715000834
:10157C00191600081F1600081F1600081F16000871
:10158C001F1600081F1600081F1600081F1600085B
:10159C001F1600081F1600081F1600081F1600084B
:1015AC001F1600081F160008CD150008E1150008CD
:1015BC00824A934213D02CE03B68DB683B6229E003
:1015CC003B68DB6804333B6224E03B68DB68083330
:1015DC003B621FE03B68DB680C333B621AE03B6804
:1015EC009B68002B02D104233B6213E03B689B6891
:1015FC00012B05D108233B627B68FA691A6109E06B
:10160C0008233B627B68FA695A6103E000233B6262
:10161C0000E000BFBB69FF2B01D87B6801E07B6851
:10162C0004337B61BB69FF2B02D87B6A9B0002E011
:10163C007B6A083B9B003B617B691A680F213B6905
:10164C0001FA03F3DB431A40396A3B6901FA03F3ED
:10165C001A437B691A603B685B6803F08053002B6C
:10166C0000F09080564B9B69554A43F001039361FF
:10167C00534B9B6903F00103BB60BB68514A7B6A07
:10168C009B08023352F82330FB607B6A03F00303A0
:10169C009B000F2202FA03F3DB43FA681340FB6052
:1016AC007B68494A93420DD07B68484A934207D0E5
:1016BC007B68474A934201D1022304E0032302E0F2
:1016CC00012300E000237A6A02F0030292009340A7
:1016DC00FA681343FB603B497B6A9B080233FA6848
:1016EC0041F823203B685B6803F48013002B06D081
:1016FC00384B9A683749BB6913438B6006E0354B0E
:10170C009A68BB69DB43334913408B603B685B6869
:10171C0003F40013002B06D02E4BDA682D49BB695D
:10172C001343CB6006E02B4BDA68BB69DB432949DA
:10173C001340CB603B685B6803F40033002B06D08E
:10174C00244B5A682349BB6913434B6006E0214B79
:10175C005A68BB69DB431F4913404B603B685B68AD
:10176C0003F48033002B06D01A4B1A681949BB6955
:10177C0013430B6006E0174B1A68BB69DB43154932
:10178C0013400B607B6A01337B623B681A687B6A8F
:10179C0022FA03F3002B7FF4AFAE00BF00BF2C374F
:1017AC00BD4680BC704700BF0000321000003110F5
:1017BC000000221000002110000012100000111077
:1017CC00001002400000014000080140000C0140E4
:1017DC00001001400004014080B485B000AF786077
:1017EC000B467B807B689A687B881340002B02D069
:1017FC000123FB7301E00023FB73FB7B18461437BA
:10180C00BD4680BC704780B483B000AF78600B4697
:10181C007B8013467B707B78002B03D07A887B68A7
:10182C001A6103E07B881A047B681A6100BF0C37CD
:10183C00BD4680BC704780B485B000AF78600B4665
:10184C007B807B68DB68FB607A88FB6813401A043A
:10185C00FB68D9437B880B401A437B681A6100BF35
:10186C001437BD4680BC704780B586B000AF786039
:10187C007B68002B01D101236CE27B681B6803F0B1
:10188C000103002B00F08780924B5B6803F00C0384
:10189C00042B0CD08F4B5B6803F00C03082B12D17C
:1018AC008C4B5B6803F48033B3F5803F0BD1894BD1
:1018BC001B6803F40033002B6CD07B685B68002B37
:1018CC0068D1012346E27B685B68B3F5803F06D1A3
:1018DC00804B1B687F4A43F4803313602EE07B6897
:1018EC005B68002B0CD17B4B1B687A4A23F480334A
:1018FC001360784B1B68774A23F4802313601DE038
:10190C007B685B68B3F5A02F0CD1724B1B68714AD6
:10191C0043F4802313606F4B1B686E4A43F480338F
:10192C0013600BE06B4B1B686A4A23F48033136023
:10193C00684B1B68674A23F4802313607B685B68E1
:10194C00002B13D0FFF7B6FC386108E0FFF7B2FCB0
:10195C0002463B69D31A642B01D90323FAE15D4B90
:10196C001B6803F40033002BF0D014E0FFF7A2FC4B
:10197C00386108E0FFF79EFC02463B69D31A642BE2
:10198C0001D90323E6E1534B1B6803F40033002B0E
:10199C00F0D100E000BF7B681B6803F00203002B52
:1019AC0063D04C4B5B6803F00C03002B0BD0494B02
:1019BC005B6803F00C03082B1CD1464B5B6803F4EB
:1019CC008033002B16D1434B1B6803F00203002B12
:1019DC0005D07B681B69012B01D00123BAE13D4B7B
:1019EC001B6823F0F8027B685B69DB003949134301
:1019FC000B603AE07B681B69002B20D0364B012230
:101A0C001A60FFF757FC386108E0FFF753FC0246F9
:101A1C003B69D31A022B01D903239BE12D4B1B6885
:101A2C0003F00203002BF0D02A4B1B6823F0F802C2
:101A3C007B685B69DB00274913430B6015E0264B81
:101A4C0000221A60FFF736FC386108E0FFF732FC21
:101A5C0002463B69D31A022B01D903237AE11D4BB1
:101A6C001B6803F00203002BF0D17B681B6803F0AA
:101A7C000803002B3AD07B689B69002B19D0174BBD
:101A8C0001221A60FFF716FC386108E0FFF712FC20
:101A9C0002463B69D31A022B01D903235AE10D4BA1
:101AAC005B6A03F00203002BF0D0012000F09AFADD
:101ABC001CE00A4B00221A60FFF7FCFB38610FE0B8
:101ACC00FFF7F8FB02463B69D31A022B08D9032314
:101ADC0040E100BF0010024000004242800442423C
:101AEC009E4B5B6A03F00203002BE9D17B681B68F9
:101AFC0003F00403002B00F0A6800023FB75974B2A
:101B0C00DB6903F08053002B0DD1944BDB69934AB6
:101B1C0043F08053D361914BDB6903F08053BB607E
:101B2C00BB680123FB758E4B1B6803F48073002B81
:101B3C0018D18B4B1B688A4A43F480731360FFF7F0
:101B4C00B9FB386108E0FFF7B5FB02463B69D31AD5
:101B5C00642B01D90323FDE0814B1B6803F48073D4
:101B6C00002BF0D07B68DB68012B06D17B4B1B6A0A
:101B7C007A4A43F0010313622DE07B68DB68002B8B
:101B8C000CD1764B1B6A754A23F001031362734B1D
:101B9C001B6A724A23F0040313621CE07B68DB6847
:101BAC00052B0CD16D4B1B6A6C4A43F0040313627A
:101BBC006A4B1B6A694A43F0010313620BE0674BE3
:101BCC001B6A664A23F001031362644B1B6A634A67
:101BDC0023F0040313627B68DB68002B15D0FFF73E
:101BEC0069FB38610AE0FFF765FB02463B69D31AD3
:101BFC0041F28832934201D90323ABE0574B1B6A65
:101C0C0003F00203002BEED014E0FFF753FB386116
:101C1C000AE0FFF74FFB02463B69D31A41F28832C8
:101C2C00934201D9032395E04C4B1B6A03F002034A
:101C3C00002BEED1FB7D012B05D1484BDB69474ACC
:101C4C0023F08053D3617B68DB69002B00F081802B
:101C5C00424B5B6803F00C03082B61D07B68DB699B
:101C6C00022B46D13F4B00221A60FFF723FB386151
:101C7C0008E0FFF71FFB02463B69D31A022B01D980
:101C8C00032367E0354B1B6803F00073002BF0D186
:101C9C007B681B6AB3F5803F08D1304B5B6823F43B
:101CAC0000327B689B682D4913434B602B4B5B6860
:101CBC0023F474127B68196A7B685B6A0B432749AF
:101CCC0013434B60274B01221A60FFF7F3FA38617C
:101CDC0008E0FFF7EFFA02463B69D31A022B01D951
:101CEC00032337E01D4B1B6803F00073002BF0D06F
:101CFC002FE01C4B00221A60FFF7DCFA386108E079
:101D0C00FFF7D8FA02463B69D31A022B01D90323F9
:101D1C0020E0124B1B6803F00073002BF0D118E08D
:101D2C007B68DB69012B01D1012313E00B4B5B6852
:101D3C00FB60FB6803F480327B681B6A9A4206D115
:101D4C00FB6803F470127B685B6A9A4201D0012332
:101D5C0000E0002318461837BD4680BD0010024035
:101D6C00007000406000424280B584B000AF7860E3
:101D7C0039607B68002B01D10123D0E06A4B1B68D2
:101D8C0003F007033A689A4210D9674B1B6823F09B
:101D9C00070265493B6813430B60634B1B6803F0F8
:101DAC0007033A689A4201D00123B8E07B681B68AC
:101DBC0003F00203002B20D07B681B6803F00403A4
:101DCC00002B05D0594B5B68584A43F4E0635360D1
:101DDC007B681B6803F00803002B05D0534B5B6832
:101DEC00524A43F460535360504B5B6823F0F0024B
:101DFC007B689B684D4913434B607B681B6803F001
:101E0C000103002B40D07B685B68012B07D1474B4B
:101E1C001B6803F40033002B15D101237FE07B6892
:101E2C005B68022B07D1414B1B6803F00073002B3E
:101E3C0009D1012373E03D4B1B6803F00203002B17
:101E4C0001D101236BE0394B5B6823F003027B6803
:101E5C005B68364913434B60FFF72CFAF8600AE0D5
:101E6C00FFF728FA0246FB68D31A41F288329342F4
:101E7C0001D9032353E02D4B5B6803F00C027B6804
:101E8C005B689B009A42EBD1274B1B6803F007035E
:101E9C003A689A4210D2244B1B6823F0070222495D
:101EAC003B6813430B60204B1B6803F007033A6835
:101EBC009A4201D0012332E07B681B6803F00403D3
:101ECC00002B08D0194B5B6823F4E0627B68DB685D
:101EDC00164913434B607B681B6803F00803002B07
:101EEC0009D0124B5B6823F460527B681B69DB00E2
:101EFC000E4913434B6000F021F802460B4B5B6814
:101F0C001B0903F00F030A49CB5C22FA03F3094ABD
:101F1C001360094B1B681846FFF78AF90023184613
:101F2C001037BD4680BD00BF0020024000100240AB
:101F3C0078280008800000208400002080B487B03E
:101F4C0000AF0023FB600023BB6000237B610023F8
:101F5C007B6000233B611E4B5B68FB60FB6803F0FE
:101F6C000C03042B02D0082B03D027E0194B3B6148
:101F7C0027E0FB689B0C03F00F03174AD35C7B60D4
:101F8C00FB6803F48033002B10D0114B5B685B0CA7
:101F9C0003F00103114AD35CBB607B680D4A02FB62
:101FAC0003F2BB68B2FBF3F37B6104E07B680C4A81
:101FBC0002FB03F37B617B693B6102E0054B3B61F8
:101FCC0000BF3B6918461C37BD4680BC704700BF3C
:101FDC000010024000127A00882800089828000897
:101FEC0000093D0080B485B000AF78600A4B1B68D7
:101FFC000A4AA2FB03235B0A7A6802FB03F3FB6029
:10200C0000BFFB685A1EFA60002BF9D100BF00BF5D
:10201C001437BD4680BC704780000020D34D621041
:10202C0080B582B000AF78607B68002B01D10123B2
:10203C0041E07B6893F83D30DBB2002B06D17B6826
:10204C00002283F83C207868FFF75AF87B6802225C
:10205C0083F83D207B681A687B6804331946104668
:10206C0000F06EFA7B68012283F846207B6801221F
:10207C0083F83E207B68012283F83F207B68012295
:10208C0083F840207B68012283F841207B68012281
:10209C0083F842207B68012283F843207B6801226D
:1020AC0083F844207B68012283F845207B68012259
:1020BC0083F83D20002318460837BD4680BD00003C
:1020CC0080B485B000AF78607B6893F83D30DBB2AC
:1020DC00012B01D0012335E07B68022283F83D20DF
:1020EC007B681B68DA687B681B6842F00102DA6067
:1020FC007B681B68164A934209D07B681B68B3F156
:10210C00804F04D07B681B68124A934211D17B68C4
:10211C001B689B6803F00703FB60FB68062B10D061
:10212C007B681B681A687B681B6842F001021A60A6
:10213C0007E07B681B681A687B681B6842F0010229
:10214C001A60002318461437BD4680BC704700BF88
:10215C00002C01400004004080B582B000AF7860D4
:10216C007B681B681B6903F00203022B22D17B687E
:10217C001B68DB6803F00203022B1BD17B681B6816
:10218C006FF002021A617B6801221A777B681B6868
:10219C009B6903F00303002B03D0786800F0B4F9BB
:1021AC0005E0786800F0A7F9786800F0B6F97B686C
:1021BC0000221A777B681B681B6903F00403042B4D
:1021CC0022D17B681B68DB6803F00403042B1BD152
:1021DC007B681B686FF004021A617B6802221A7715
:1021EC007B681B689B6903F44073002B03D07868F1
:1021FC0000F08AF905E0786800F07DF9786800F065
:10220C008CF97B6800221A777B681B681B6903F0CA
:10221C000803082B22D17B681B68DB6803F00803DA
:10222C00082B1BD17B681B686FF008021A617B6856
:10223C0004221A777B681B68DB6903F00303002B0D
:10224C0003D0786800F060F905E0786800F053F985
:10225C00786800F062F97B6800221A777B681B684B
:10226C001B6903F01003102B22D17B681B68DB6801
:10227C0003F01003102B1BD17B681B686FF010024E
:10228C001A617B6808221A777B681B68DB6903F488
:10229C004073002B03D0786800F036F905E07868BD
:1022AC0000F029F9786800F038F97B6800221A7779
:1022BC007B681B681B6903F00103012B0ED17B6843
:1022CC001B68DB6803F00103012B07D17B681B68DB
:1022DC006FF001021A617868FEF710FE7B681B68CC
:1022EC001B6903F08003802B0ED17B681B68DB68B5
:1022FC0003F08003802B07D17B681B686FF0800292
:10230C001A61786800F06BFA7B681B681B6903F034
:10231C004003402B0ED17B681B68DB6803F0400345
:10232C00402B07D17B681B686FF040021A617868FC
:10233C0000F0FCF87B681B681B6903F02003202B62
:10234C000ED17B681B68DB6803F02003202B07D1C0
:10235C007B681B686FF020021A61786800F036FA0F
:10236C0000BF0837BD4680BD80B584B000AF786033
:10237C0039600023FB737B6893F83C30012B01D14F
:10238C000223B4E07B68012283F83C207B680222A4
:10239C0083F83D207B681B689B68BB60BB6823F09F
:1023AC007703BB60BB6823F47F43BB607B681B680F
:1023BC00BA689A603B681B68B3F5005F3ED0B3F512
:1023CC00005F00F28780B3F5805F00F08680B3F584
:1023DC00805F7FD8702B1AD0702B7BD8602B50D09D
:1023EC00602B77D8502B3CD0502B73D8402B58D027
:1023FC00402B6FD8302B64D0302B6BD8202B60D077
:10240C00202B67D8002B5CD0102B5AD062E07B6855
:10241C0018683B6899683B685A683B68DB6800F051
:10242C005EF97B681B689B68BB60BB6843F07703F5
:10243C00BB607B681B68BA689A604FE07B68186861
:10244C003B6899683B685A683B68DB6800F047F961
:10245C007B681B689A687B681B6842F480429A60B0
:10246C003CE07B6818683B6859683B68DB681A4637
:10247C0000F0BEF87B681B685021184600F015F977
:10248C002CE07B6818683B6859683B68DB681A4627
:10249C0000F0DCF87B681B686021184600F005F939
:1024AC001CE07B6818683B6859683B68DB681A4617
:1024BC0000F09EF87B681B684021184600F0F5F888
:1024CC000CE07B681A683B681B681946104600F0E4
:1024DC00ECF803E00123FB7300E000BF7B680122F2
:1024EC0083F83D207B68002283F83C20FB7B184658
:1024FC001037BD4680BD80B483B000AF786000BF9C
:10250C000C37BD4680BC704780B483B000AF786098
:10251C0000BF0C37BD4680BC704780B483B000AFA1
:10252C00786000BF0C37BD4680BC704780B483B068
:10253C0000AF786000BF0C37BD4680BC7047000010
:10254C0080B485B000AF786039607B681B68FB6035
:10255C007B68254A934207D07B68B3F1804F03D048
:10256C007B68224A934208D1FB6823F07003FB601E
:10257C003B685B68FA681343FB607B681A4A9342BA
:10258C0007D07B68B3F1804F03D07B68174A934226
:10259C0008D1FB6823F44073FB603B68DB68FA6886
:1025AC001343FB60FB6823F080023B685B691343B9
:1025BC00FB607B68FA681A603B689A687B68DA6231
:1025CC003B681A687B689A627B68074A934203D11E
:1025DC003B681A697B681A637B6801225A6100BFE9
:1025EC001437BD4680BC7047002C014000040040ED
:1025FC0080B487B000AFF860B9607A60FB681B6A82
:10260C007B61FB681B6A23F00102FB681A62FB68A2
:10261C009B693B613B6923F0F0033B617B681B01C9
:10262C003A6913433B617B6923F00A037B617A6946
:10263C00BB6813437B61FB683A699A61FB687A69F2
:10264C001A6200BF1C37BD4680BC704780B487B08F
:10265C0000AFF860B9607A60FB681B6A7B61FB684D
:10266C001B6A23F01002FB681A62FB689B693B61D2
:10267C003B6923F470433B617B681B033A6913434A
:10268C003B617B6923F0A0037B61BB681B017A690A
:10269C0013437B61FB683A699A61FB687A691A6239
:1026AC0000BF1C37BD4680BC704780B485B000AFFE
:1026BC00786039607B689B68FB60FB6823F0700373
:1026CC00FB603A68FB68134343F00703FB607B68CD
:1026DC00FA689A6000BF1437BD4680BC704780B45E
:1026EC0087B000AFF860B9607A603B60FB689B68AC
:1026FC007B617B6923F47F437B613B681A027B68B7
:10270C001A43BB6813437A6913437B61FB687A698C
:10271C009A6000BF1C37BD4680BC704780B485B042
:10272C0000AF786039607B6893F83C30012B01D1A5
:10273C00022341E07B68012283F83C207B68022263
:10274C0083F83D207B681B685B68FB607B681B68BB
:10275C009B68BB60FB6823F07003FB603B681B68E5
:10276C00FA681343FB607B681B68FA685A607B68E5
:10277C001B68144A934209D07B681B68B3F1804FE5
:10278C0004D07B681B68104A93420CD1BB6823F0C1
:10279C008003BB603B685B68BA681343BB607B68B3
:1027AC001B68BA689A607B68012283F83D207B68BD
:1027BC00002283F83C20002318461437BD4680BC09
:1027CC00704700BF002C01400004004080B483B06F
:1027DC0000AF786000BF0C37BD4680BC704780B43A
:1027EC0083B000AF786000BF0C37BD4680BC70472B
:1027FC0070B500260C4D0D4C641BA410A64209D1DB
:10280C0000F022F800260A4D0A4C641BA410A642C4
:10281C0005D170BD55F8043B98470136EEE755F8E5
:10282C00043B98470136F2E79C2800089C280008D6
:10283C009C280008A028000803460244934200D1BB
:10284C00704703F8011BF9E7F8B500BFF8BC08BCEA
:10285C009E467047F8B500BFF8BC08BC9E46704752
:10286C00C0F9A4B0999282F880900000000000009A
:10287C000000000001020304060708090203040516
:10288C00060708090A0B0C0D0E0F101001020000B0
:04289C0031010008FE
:0428A0000D0100081E
:1028A400000000000500000000000000030000001C
:1028B400010000000B000000050000000200000001
:1028C40003000000050000000200000003000000F7
:1028D40005000000020000000300000005000000E5
:1028E40002000000030000000100000001000000DD
:1028F40001000000010000000100000001000000D0
:1029040001000000010000000100000001000000BF
:102914000100000001000000640000000A00000043
:0C2924000024F40010000000010000007E
:04000005080011C519
:00000001FF
